:020000040800F2
:1000000078EF0120250300082D0300082F030008C6
:100010003103000833030008350300080000000026
:10002000000000000000000000000000370300088E
:1000300039030008000000003B0300083D030008EE
:100040003F0300083F0300083F030008794D000804
:100050003F0300083F0300083F0300083F03000878
:100060003F0300083F0300083F0300083F03000868
:100070003F0300083F0300083F0300083F03000858
:100080003F0300083F0300083F0300083F03000848
:100090003F0300083F0300083F0300083F03000838
:1000A0003F0300083F0300083F0300083F03000828
:1000B0003F0300083F0300083F0300083F03000818
:1000C0003F0300083F0300083F0300083F03000808
:1000D0003F03000889C300083F03000811C400085B
:1000E0003F0300086D4900083F0300083F03000874
:1000F0003F0300083F0300083F0300083F030008D8
:100100003F030008755700083F0300083F0300083D
:100110003F0300083F0300083F03000821AF000829
:100120003F0300083F0300083F0300083F030008A7
:100130003F0300083F0300083F0300083F03000897
:100140003F0300083F0300083F030008D5460008AE
:100150003F0300083F0300083F0300083F03000877
:100160003F0300083F0300083F0300083F03000867
:100170003F0300083F0300083F0300083F03000857
:100180003F0300083F03000800F002F800F0B2F857
:100190000AA090E8000C82448344AAF10107DA45E2
:1001A00001D100F0A7F8AFF2090EBAE80F0013F082
:1001B000010F18BFFB1A43F001031847EC1D0400A0
:1001C0000C1E04000A444FF0000C10F8013B13F021
:1001D000070408BF10F8014B1D1108BF10F8015BA0
:1001E000641E05D010F8016B641E01F8016BF9D193
:1001F00013F0080F1EBF10F8014BAD1C0C1B09D1EA
:100200006D1E58BF01F801CBFAD505E014F8016B5B
:1002100001F8016B6D1EF9D59142D6D370470000ED
:100220000023002400250026103A28BF78C1FBD8FF
:10023000520728BF30C148BF0B6070476E2900F0DD
:100240004984702900F02982662914F0FF87652906
:1002500014F0FC87672914F0F9876129AFF3008057
:1002600003681B0A28BF41F08001692900F09A81C8
:10027000642900F09781752900F094816F2900F0BE
:100280004185782900F0F581E92900F0DB84E42933
:1002900000F0D884F52900F0D584EF2900F03E85E0
:1002A000F82900F0F4810368DB0928BF41F08001E0
:1002B000632900F04A84732900F04F84E32900F099
:1002C000C987F32900F0CE87002070471FB514F0CE
:1002D000B8FF01F021F804000020002114F0A2FC76
:1002E000401C60600020002114F086FCE0601FBD0F
:1002F00010B510BD00F0E2FF1146FFF7E7FF12F066
:1003000045FD01F0BBF803B4FFF7F2FF03BC0EF0AC
:10031000E7FA000030BF72B6704762B6704780F3EC
:10032000088870470948804709480047FEE7FEE70C
:10033000FEE7FEE7FEE7FEE7FEE7FEE7FEE7FEE795
:1003400004480549054A064B7047000075750008CA
:100350008901000878E9012078EF012078EB01207D
:1003600078EB0120704753EA020C00F069802DE918
:10037000F04B4FF00006002B1FBFB3FA83F503FAD2
:1003800005F424FA05F65E4012BF1643B2FA82F570
:1003900002FA05F4C5F120051EBF22FA05FC44EA65
:1003A0000C04203556EA044C4FEA144418BF641C70
:1003B0004FF000084FF00009904271EB030C39D365
:1003C000002919BFB1FA81F701FA07F6B0FA80F7F0
:1003D00000FA07F6C7F120071EBF20FA07FC46EA1D
:1003E0000C062037B6FBF4FCA7EB0507103F07F01F
:1003F0001F0BCBF120060CFA0BFB2CFA06F644BFC0
:10040000B3460026202FA4BF5E464FF0000B5BEAE8
:10041000060C08BF4FF0010B19EB0B09ABFB027C7C
:1004200048EB0608C01B06FB02CC0BFB03CC71EBB0
:100430000C01C1E70B46024641464846BDE8F08B39
:1004400013B54FF000004FF00001AFF30080BDE89E
:100450001C40704710B54C1084EA530404D5404248
:10046000C1F1000138BF491E1B4204D55242C3F1FD
:10047000000338BF5B1EFFF776FF14F0804F04D0F7
:100480004042C1F1000138BF491E14F0004F04D0B2
:100490005242C3F1000338BF5B1E10BD1CB50C46B1
:1004A000064B7B4469460090204600F02CFB044636
:1004B0000020694600F03AFB20461CBD870600007C
:1004C0000FB4044910B503AA029800F04BFB10BC0E
:1004D0005DF814FB000000200FB41CB5084B06AA01
:1004E0007B4469460090059800F00DFB044600200F
:1004F000694600F01BFB20461CBC5DF814FB0000A5
:100500004906000070B5044685690068C10601D53A
:10051000302600E02026C00707D070BDD4E90121B5
:1005200030469047206A401C20626D1EF6D570BD93
:1005300070B5044685690078C00707D170BDD4E95D
:10054000012120209047206A401C20626D1EF6D5B4
:1005500070BD70B50C460546012A05D02878800686
:1005600000D5EA69002302E0012305E05B1C934209
:1005700002D2E05C0028F9D1A869E618C01AA86187
:10058000286A184428622846FFF7BCFF04E0D5E932
:10059000012114F8010B9047B442F8D32846FFF725
:1005A000C7FF70BD2DE9F04106460024106875298B
:1005B000314616A510D000F022FA002802DA404297
:1005C00013A507E031688A0701D512A502E04907A3
:1005D00004D511A5012401E000F01AFA00210A2235
:1005E00006F1240709E0B0FBF2FCB0FBF2F302FBDA
:1005F0001C00303078541846491C0028F3D123469B
:100600002A463046BDE8F04100F00BBA0000000079
:100610002D0000002B00000020000000F0B40D466B
:100620000188090502D5214C7C4402E01F4C7C4422
:100630000E34002100F1240608E002F00F07120931
:10064000E75D42EA03721B097754491C52EA03072B
:10065000F3D102780023120704D5702D06D009B11A
:10066000022311342246F0BC00F0DBB90123103420
:10067000F8E770B504460D462146106800F0C8F949
:10068000024629462046BDE870400023C6E7D21D39
:1006900022F00703D3E90023C0E70368126843F0A0
:1006A000200303600823C3610023B7E7E3160400B7
:1006B0002DE9F05F894604464FF0000ADFF874B177
:1006C000FB44C0F820A02046E1688847002874D089
:1006D000252806D0D4E901219047206A401C2062D9
:1006E000F1E700265F462046E16888472028054656
:1006F00007DB312D05D2781910F8200C08B106431C
:10070000F1E7B00701D526F00406C4F81CA00027C5
:10071000C4F818A02A2D09D028460EF0DAF838B30C
:1007200004EB8708303DC8F8185019E059F8041B4D
:10073000204604EB87029161E1688847012F054656
:1007400018D1E069002820DA26F020061DE0D8F84C
:10075000180000EB800005EB40003038C8F81800A6
:100760002046E168884705460EF0B3F80028EED130
:10077000012F0AD02E2D08D12046E16888477F1C22
:100780000546022F46F02006C4DBA069002803DAE4
:10079000404246F00106A061F00701D026F01006A5
:1007A0006C2D0BD0682D09D04C2D39D06A2D35D049
:1007B000742D35D07A2D33D016E038E0E1682F461D
:1007C00020468847B842054609D16C2F26D04FF401
:1007D0008060E168064320468847054604E06C2FA8
:1007E0001AD04FF4807006430DB3A5F141001928CB
:1007F00002D8203546F400664A462946204626603F
:100800004E46FFF71BFD80B101280BD0F61D26F0E8
:10081000070000F1080956E74020E4E78020D8E708
:100820000020D6E706F104094DE7284652E7206A82
:10083000BDE8F09F7316040040EA0103024630B59C
:100840009B0710D14FF0013400E008C208C91D1BFE
:100850009D4315EAC41FF8D013F0FF0102F8011BF5
:100860000DD01B0AF8E711F8013B002B02F8013B01
:1008700005D011F8013B002B02F8013BF3D130BD4C
:1008800010B5431C02E010F8011B71B18107FAD1C9
:100890004FF0013202C88C1A8C4314EAC211F9D00D
:1008A000C01A0A0603D0C01E10BDC01A10BD0A042B
:1008B00001D0801E10BD0902FCD0401E10BD421E9A
:1008C00012F8013F002BFBD111F8013B002B02F87D
:1008D000013BF9D17047032A40F2308010F0030C3D
:1008E00000F0158011F8013BBCF1020F624498BF83
:1008F00011F801CB00F8013B38BF11F8013BA2F120
:10090000040298BF00F801CB38BF00F8013B11F09A
:10091000030300F00D82083AC0F0088051F8043B50
:10092000083A51F804CBA0E80810F5E7121D5CBFA7
:1009300051F8043B40F8043BAFF30080D20724BFDA
:1009400011F8013B11F801CB48BF11F8012B24BF6E
:1009500000F8013B00F801CB48BF00F8012B7047BD
:100960004FF0013C50F8042B51F8043B9A4221D13E
:10097000A2EB0C03934313EACC1317D150F8042BCA
:1009800051F8043B9A4215D1A2EB0C03934313EAAE
:10099000CC130BD150F8042B51F8043B9A4209D1E7
:1009A000A2EB0C03934313EACC13DBD04FF000000F
:1009B000704700BFD01A01BAB1FA81F101F01801F5
:1009C00022FA01F0CB40C1F12001DBB2C0B2C01A63
:1009D0002CFA01F3D11A914311EAC311E6D1704701
:1009E000704770477047704710B500F0D3F9006842
:1009F00010BD10B5044600F0CDF9046010BD0968C3
:100A00004A0501D540B27047C905FCD500B2704710
:100A100009684A0501D5C0B27047C905FCD580B246
:100A200070472DE9F0470D4699469246044600F17D
:100A300024080168880604D5E06921F010012160CE
:100A400000E00120A84201DD471B00E00027A1696A
:100A50007A1902EB0900081AA0612078C00602D4B6
:100A60002046FFF74FFD002608E0D4E901211AF8DF
:100A700006009047206A401C761C20624E45F4DB3D
:100A80002078C0060AD52046FFF73CFD06E0D4E9F1
:100A9000012130209047206A401C2062381EA7F1B7
:100AA0000107F4DC07E0D4E9012118F805009047BC
:100AB000206A401C2062281EA5F10105F3DC2046B7
:100AC000FFF736FD2078000602D50220BDE8F0874A
:100AD0000120FBE711680268006A530501D5087020
:100AE0000AE0D30501D5088006E0130603D5C21736
:100AF000C1E9000200E008600120704701694A1C5A
:100B000002610878704700B58FB0CDE9013100214E
:100B1000059105497944CDE9031011466846FFF770
:100B2000C7FD0FB000BD0000E5FFFFFF0A6802F837
:100B3000010B0A60704710B5436913B1AFF3008031
:100B400001E0FFF706FD012010BD127800F124013D
:100B50000A7000224A700122EDE711684FF0FF325F
:100B6000E9E70000074B70B50D467B44FFF7CBFF6C
:100B70000446284600F07AFB10B14FF0FF3070BDFC
:100B8000204670BDBF0801002DE9FF5F15468A466B
:100B90000446DFF8AC80F8440027D8E900103E4650
:100BA000CDE9001010E03AF816106A4602A800F0ED
:100BB00061FB411C07D02178890603D5E269391809
:100BC00091420DD80744761C2078800602D5E06952
:100BD000B84205DDAE42E6DB3AF816000028E2D165
:100BE000A069C01BA0612046FFF78CFCD8E900106B
:100BF000CDE90010002017E03AF818106A4602A864
:100C000000F038FBB0F1FF3F81460BD000250DF11D
:100C1000080B05E0D4E901211BF8050090476D1C85
:100C20004D45F7D308F10100B0428046E4DB206A6D
:100C3000384420622046FFF77BFCBDE8FF9F0000A0
:100C4000AE1104002DE9F0418046D21D22F00702CA
:100C50000025D2E90002F52915A614D0011E72F173
:100C6000000106DA0023D0EB030063EB020211A6B9
:100C700008E0D8F800108B0701D50FA602E049075D
:100C800001D50EA601251146002408F1240704E031
:100C900000F084F830323A55641C50EA0102F7D172
:100CA0002B46324621464046BDE8F041FFF7B9BE2B
:100CB000000000002D0000002B00000020000000BC
:100CC00030B4002100F1240408E002F00705D20846
:100CD000303542EA4372DB086554491C52EA030589
:100CE000F3D10468002310A2250708D504F02004DE
:100CF0000C4304D0C46901230CA2641EC46130BC3F
:100D0000FFF78FBE10B5044621461068FFF780FE3E
:100D100002462046BDE810400023D1E7D21D22F054
:100D20000701D1E90023CBE70000000030000000FC
:100D300010B5203AC0F00B80B1E81850203AA0E876
:100D40001850B1E81850A0E81850BFF4F5AF5FEAAA
:100D5000027C24BFB1E81850A0E8185044BF18C95D
:100D600018C0BDE810405FEA827C24BF51F8043B04
:100D700040F8043B08BF7047D20728BF31F8023B58
:100D800048BF11F8012B28BF20F8023B48BF00F8EC
:100D9000012B70470048704714E9012030B5B0F1CD
:100DA0000A024FEA900E71F100034EEA817EB0EB29
:100DB0000E0061EB91014FEA101E4EEA017E10EB2E
:100DC0000E0041EB11114FEA102E4EEA016E10EBAE
:100DD0000E0041EB11214FEA104E4EEA014E10EB8E
:100DE0000E0041EB1141401841F100014FEAD000E3
:100DF00040EA41704FEAD10110EB80054FEA8104CF
:100E000044EA907444EB01046D1944EB0404521B52
:100E1000A3414FF0000348BF0A3200D530BD401C4B
:100E200041F1000130BD70472DE9FF4F0C461E46D1
:100E30004FF0FF378BB0D2E90001DDF860800A90F7
:100E40008A46C1F30A5505B93D46002108464FF0D0
:100E50000000BAF1000F00F4400005DA00EB80005A
:100E60004FF4400101EA50004FEA9059B9F1010FE7
:100E700000DDB9460A9850EA4A000ED044F61050F8
:100E8000A5F2FF3545432F14B8F1000F1ED075426F
:100E9000291E1EDDC9F100021CE0B8F1010F4FF060
:100EA000000001D0302103E0F24305E02154401C52
:100EB000B042FBDB30460022002121540B99C1F8DF
:100EC0000880C1E900200FB0BDE8F08FBD1B6D1C8C
:100ED000DEE74A4600DA694206A800F061FA06AB8E
:100EE00093E8070003AB83E8070050460A9900F037
:100EF000CEFA8DE80700A0F500501F380090039847
:100F0000002D09DD42F21F014A46084403A903905F
:100F1000684600F02DFD08E0A0F500504A461F3855
:100F200003A90390684600F037FD8DE80700000430
:100F3000000C03D04FF0FF30410800E01046B8F13C
:100F4000000F03D00022009215461EE0751E05D446
:100F5000FFF724FF303262556D1EF9D5B3460122EA
:100F6000084302D000227F1C04E02078302801D101
:100F700000227F1E002A099786D01DE0112D07DA76
:100F8000FFF70CFF303262556D1C50EA0102F5D1BB
:100F9000084302D00098C8B10EE00021681E05E0A9
:100FA000235C625C63542254401E491C8142F7DB7F
:100FB000AB46A81B401E0990002004F80B000B98BC
:100FC000099AC0F80880C0E9002B7CE711264FF091
:100FD000000859E72DE9F04F88460446D21D22F05B
:100FE000070191B0D1E90001CDE90A010DF01CFC27
:100FF00002460B98C00F01D02D2007E02068810722
:1010000001D52B2002E0202101EAC000032A09902B
:1010100001D0072A05DB03464146204600F080F94F
:101020000BE12078800601D5E06900E00620B8F1E8
:10103000650F814606D0B8F1660F18D0B8F1670F7A
:1010400070D131E00020B9F1110F009001DB1123C4
:1010500001E009F101030AAA01A90CA8FFF7E4FEC7
:10106000DDE90C70002609F10105834647E0012007
:101070004B4600904FF000470AAA01A90CA8FFF7C1
:10108000D3FEDDE90DB00C995D46002610B909F1DB
:1010900001000D18B9EB050003D4C0F1FF3609F1CA
:1010A0000105A5EB09002BE0B9F1010F01DA4FF0C2
:1010B00001090020B9F1110F0090484601DD11230C
:1010C00000E003460AAA01A90CA8FFF7ADFEDDE97E
:1010D0000C704D4600268346207800070AD4AB45A5
:1010E00000DA5D4601A8012D04DD411911F8011C4B
:1010F000302907D04F4502DA17F1040F04DA012036
:1011000082460FE06D1EEEE7002F02DCED1B3E4431
:1011100003E0781CA84200DD7D1CB81B00F1010A29
:101120004FF000472078000703D4AA4501DB4FF0B9
:10113000FF3A0021B7F1004F0DF143088DF843103D
:1011400024D002202B23002F01DA7F422D230A21F5
:10115000021EA0F1010000DC5FB197FBF1FC97FBE0
:10116000F1F201FB1C7C17460CF1300C08F801CDA4
:10117000EEE7A8F1010003702188090501D545219A
:1011800000E06521A0F1010800F8011C09980FA9F1
:10119000A1EB0807FF1D00B10120411901EBEA7026
:1011A000A1693844081A401EA0612078C00602D404
:1011B0002046FFF7A7F9099828B1D4E90121904703
:1011C000206A401C20622078C00622D52046FFF706
:1011D00099F91EE0002E04DBB34502DD01A8805D15
:1011E00000E03020D4E901219047206A401C2062B1
:1011F000761CAAF101005FEA000A0AD100F08CF81F
:10120000C0680168405CD4E901219047206A401C15
:101210002062281EA5F10105DCDC07E0D4E90121EC
:1012200018F8010B9047206A401C2062381EA7F175
:101230000107F3DC2046FFF77BF9032011B043E6FA
:1012400010B5436913B1AFF3008001E0FFF79CFCD8
:10125000012010BD128800F1240182840022C28482
:101260000122EDE711684FF0FF32E9E7007B00F063
:101270008000704770B516460C46054600F044F8ED
:10128000036893F80101012806D0FF2C0FD8185DE0
:1012900068B101202C7070BDD3F807013246214699
:1012A00003F2071303442846BDE8704018474FF087
:1012B000FF3070BD0048704714E901207546FFF704
:1012C000F9FFAE4605006946534620F00700854603
:1012D00018B020B5FFF734F8BDE820404FF0000605
:1012E0004FF000074FF000084FF0000B21F007010E
:1012F000AC46ACE8C009ACE8C009ACE8C009ACE851
:10130000C0098D467047000010B500F005F8001DBB
:1013100010BD00BF113901000048704734E90120B9
:101320002DE9F0411F46044603260168072A01F40F
:10133000006004DB08B116A505E016A503E008B1BE
:1013400015A500E015A521F010002060A069C01EC1
:10135000A0610FB1401EA0612046FFF7D3F84FB146
:10136000D4E9012138469047206A401C2062C01C05
:10137000206206E0206AFAE7D4E9012115F8010BA2
:101380009047761EF8D22046FFF7D2F8BDE8F081EC
:101390004E414E006E616E00494E4600696E660019
:1013A0002DE9F047814616468AB0334878440DC887
:1013B0008DE80D0030487844801C03AC0DC884E8EB
:1013C0000D0041F69B300844372190FBF1F290FB71
:1013D000F1F5A5F1800501FB12041B3C02D5644226
:1013E000012000E00020DFF890A080460027FA44AA
:1013F000AAF1BE0A0DE0E00709D03246684607EBC5
:1014000047010AEB810100F0C7FA8DE8070064107C
:101410007F1C002CEFD1184F7F44AC3F18E0E80749
:1014200014D007EB04100DF1180A90E80E008AE8BA
:101430000E00C068F04201D198190890324606A902
:1014400003A800F0A9FA03AB83E807006D10641C41
:10145000002DE4D132466946B8F1000F03A802D04E
:1014600000F086FA01E000F097FAC9E90001C9F836
:1014700008200AB0BDE8F0871C0A040010B5044635
:10148000AFF300802046BDE81040FEF73CBF5FEAA6
:10149000400C08BF91F0000F4FEA8C234FEAC122A5
:1014A00043EA51514FEA1C5018BF00F5F0404FEA93
:1014B000300018BF41F000415FEA6C5C00F0298009
:1014C000BCF1FF3F08BF40F080407047130C06BFDF
:1014D00012044FF0100C4FF0000C130E04BF120258
:1014E0000CF1080C130F04BF12010CF1040C930F44
:1014F00004BF92000CF1020CD30F04BF52000CF198
:10150000010C11464FF00002A0F11F00A0EB0C00EF
:10151000704711F0004F08BF704731F000413FF4B1
:10152000D5AF0B0C06BF09044FF0100C4FF0000CA8
:101530000B0E04BF09020CF1080C0B0F04BF0901CC
:101540000CF1040C8B0F04BF89000CF1020CCB0FC3
:1015500004BF49000CF1010CCCF12003A0EB0C00FE
:1015600022FA03F302FA0CF241EA030100F101004E
:10157000704720F07F4C80EA030023F07F47ACEBFC
:10158000070303F57C5300F0004003F1FF032DE94E
:1015900080494FEA154B09B44FEA144325EA0B4E34
:1015A00024EA03480FF2042606EB132749083E7885
:1015B0005FEA320203FB0667C7F5000707FB06F682
:1015C0004FEA54374FEAD64606F1020607FB066C8F
:1015D000CCF1005C4FEA1C472CEA074C07FB06F4F1
:1015E0000CFB06F504EB15464FEA961634BF0020B7
:1015F0004FF000404FEAD13706FB07FC4FEA1C4C86
:101600000CFB0BF7D21B03FB0CF761EB07010CFB88
:101610000EF7B0EB074072EB17420CFB08F734BF34
:10162000A2EB0742B2EB074261EB17414FEA0C44D1
:101630004FEA910706FB07FC4FEA1C4C0CFB0BF72B
:10164000B0EBC74072EB573203FB0CF734BFA2EB91
:10165000C742B2EBC74261EB57310CFB0EF7B0EB60
:10166000C70072EB57720CFB08F734BFA2EBC7023E
:10167000B2EBC70261EB5771039F4FEA816141EA08
:10168000921104EBCC044FEAD1374FEA826206FB99
:1016900007FC42EA90124FEA80604FEA1C4C0CFBB8
:1016A0000BF7D21B03FB0CF761EB07010CFB0EF7EA
:1016B000B0EB074072EB17420CFB08F734BFA2EB0C
:1016C0000742B2EB074261EB17414FEA8C554FEAF4
:1016D000910704EB9C2406FB07FC4FEA1C4C0CFB17
:1016E0000BF7B0EBC74072EB573203FB0CF734BF7C
:1016F000A2EBC742B2EBC74261EB57310CFB0EF7CE
:10170000B0EBC70072EB57720CFB08F734BFA2EBCB
:10171000C702B2EBC70261EB577115EB4C254FEADC
:10172000816141EA92114FEA82624FEAD13742EA7F
:10173000901206FB07FC44F100044FEA80604FEA78
:101740001C4C0CFB0BF7D21B03FB0CF761EB0701E6
:101750000CFB0EF7B0EB074072EB17420CFB08F7DF
:1017600034BFA2EB0742B2EB074261EB174115EB26
:101770001C154FEA813141EA92414FEA823242EA36
:1017800090424FEA80304FEA0C7644F1000448EA78
:1017900003434EEA0B484FF0000EB2EB080C71EB1E
:1017A000030724BF624639464EEB0E0E4FF0000B86
:1017B0000018524149414BEB0B0BB2EB080C71EB9B
:1017C00003077BF1000B24BF624639464EEB0E0E39
:1017D0004FF0000B0018524149414BEB0B0BB2EBA1
:1017E000080C71EB03077BF1000B24BF62463946FE
:1017F0004EEB0E0E51EA020718BF46F0010616EB3B
:101800000E7655F1000254F1000103D5BDE88901BF
:10181000BDE80088BDE88901BDE80048B61952411D
:1018200041EB0101A3F10103704780807F7E7D7C45
:101830007B7A7978777676757473727171706F6E62
:101840006E6D6C6C6B6A6A6968686766666564640D
:10185000636362616160605F5F5E5E5D5D5C5C5B97
:101860005B5A5A5959585857575656555555545406
:10187000535352525251515050504F4F4F4E4E4D64
:101880004D4D4C4C4C4B4B4B4A4A4A4949494848B0
:1018900048474747474646464545454444444443F0
:1018A00043434342424242414141002B26D4770008
:1018B00021D01CB54FEA370703B44FF010004FF0AA
:1018C00010014FF000000FBCBDE810400BF1010B00
:1018D000BBF1010F08BF5FEA170722BF12F1010237
:1018E00011F101014FF0004143F1000300F000400D
:1018F00043EA00007047F9D35708DAE746EA06469C
:1019000013F1400F4FEA16461FDD13F1200FDFBF22
:1019100016430A46002120335B42C8D0C3F120079A
:1019200046EA064602FA07F74FEA164646EA07066F
:10193000C3F1200722FA03F201FA07F721FA03F1B3
:101940004FF0000342EA0702B1E746EA020646EA20
:1019500006464FEA164646EA0106BCBF46EA064678
:10196000360C4FF000034FF000024FF000019EE7ED
:101970002DE9C048934630B491E8380007C831EAF1
:10198000400C48BF34EA430C03D5FFF7F2FDFFF7E4
:101990008CFFF0BCBDE800882DE9C048934630B408
:1019A00091E8380007C810F0804F08BF13F0804F4F
:1019B00003D100F005F8FFF778FFF0BCBDE8008820
:1019C00020F07F4780EA030023F07F4C07EB0C03F5
:1019D000A3F57C5300F00040A3F1FE0392F0000F4A
:1019E00000F0B38095F0000F00F077802DE90149F9
:1019F0004FEA11404FEA144621EA004800FB06FC7A
:101A000024EA064708FB06F607FB08F800FB07F781
:101A100018EB06484CEB164C4FEA124B18EB0748F4
:101A20004FEA15464CEB174022EA0B4E0BFB06FC27
:101A300025EA06470EFB06F607FB0EFE0BFB07F733
:101A40001EEB064E4CEB164C4FF000061EEB074EFD
:101A50004CEB174B18EB0B0840F1000018EB0E0B8A
:101A600058EB000840F100008F1A4FF000013CBF16
:101A7000C943661B14BFB5EB040C00213CBFC9432E
:101A8000F61B4FEA17444EEA8E0E27EA04454FEA4A
:101A90001C4704FB07622CEA074C05FB07F70CFB0D
:101AA00005F604FB0CFC16EB074642EB174216EB5F
:101AB0000C4642EB1C421BEB060658EB020241416E
:101AC00046EA9E0601D5BDE80189B619524141EBAF
:101AD0000101A3F10103BDE801894FEA14454FEA72
:101AE000114724EA054621EA074C05FB07F406FBEB
:101AF00007F70CFB06F105FB0CFC11EB074144EB6F
:101B000017444FEA124711EB0C4144EB1C4422EA04
:101B1000074C05FB07F206FB07F70CFB06F605FB77
:101B20000CFC16EB074642EB174216EB0C4642EB59
:101B30001C456A1854F1000148BF7047B61952415C
:101B400041EB0101A3F10103704795F0000F37D07D
:101B50004FEA11424FEA144721EA024624EA074CB1
:101B600002FB07F106FB07F70CFB06F402FB0CFC7B
:101B700014EB074441EB17414FEA154714EB0C44B3
:101B800041EB1C4125EA074C02FB07F506FB07F772
:101B90000CFB06F602FB0CFC16EB074645EB174563
:101BA00016EB0C4645EB1C42121951F1000148BFDF
:101BB0007047B619524141EB0101A3F1010370478F
:101BC0004FEA14454FEA114724EA054621EA074C3B
:101BD00005FB07F106FB07F70CFB06F24FF00006CA
:101BE00005FB0CFC12EB074241EB174112EB0C42D8
:101BF00051EB1C4148BF7047921841EB0101A3F122
:101C00000103704710B501F07DFA10BD2DE9F041D8
:101C100007460C460026002509E036023919491B03
:101C2000491E88B200F008F80644681CC5B2A542F7
:101C3000F3DB3046BDE8F08170B50446002601F0C4
:101C400019FB2546E11704EB11610912A02202EBF2
:101C50004101C8B201F0DAFA01F058FBE11704EBD8
:101C600011610912A4EB0121C8B201F0CFFA01F011
:101C70004DFB01F0FFFAA12001F0C8FA01F046FB8C
:101C8000002001F08DFA064601F01AFB304670BDC7
:101C90002DE9F04105460E461746002409E0E20012
:101CA00026FA02F2D1B22A1990B200F006F8601CAE
:101CB000C4B2BC42F3DBBDE8F08170B504460E4609
:101CC00001F0D8FA2546E11704EB11610912A022B0
:101CD00002EB4101C8B201F099FA01F017FBE117DC
:101CE00004EB11610912A4EB0121C8B201F08EFAD4
:101CF00001F00CFB304601F089FA01F007FB01F01E
:101D0000DFFA0A200DF0E0FB70BD70B500254FF43E
:101D1000803404E0802003F019FD00B103E0201EB0
:101D2000A4F10104F6D100BF0CB9032070BD40F24C
:101D3000FF5003F0E1FC2846F8E7000070B50446C8
:101D400005E01648056805F0450000B100E0F8E739
:101D500000BF042003F0FAFC20B1042003F0CCFC07
:101D6000032070BD012003F0F1FC20B1012003F03D
:101D7000C3FC0120F5E7094824380068A04201D0DF
:101D80001020EEE740F2FF5003F0B6FC0348203885
:101D9000006808210840C0B2E3E70000342C01408D
:101DA00070B500264FF4803505E01148046804F052
:101DB000450000B103E0281EA5F10105F5D100BFE3
:101DC00015B104F0040028B10326042003F094FCAC
:101DD000304670BD012003F0B9FC18B10126012086
:101DE00003F08AFC40F2FF5003F086FC3046F0E737
:101DF000342C014010B505E00B48046804F04500A0
:101E000000B100E0F8E700BF042003F09FFC20B120
:101E1000042003F071FC032010BD40F2FF5003F0DA
:101E20006BFC0020F8E70000342C01402DE9F04164
:101E300005460E464FF0000805E02048076807F009
:101E4000450000B100E0F8E700BF042003F07EFC8D
:101E500028B1042003F050FC0320BDE8F0810120EC
:101E600003F074FC20B1012003F046FC0120F4E7EC
:101E7000124824380068A84201D01020EDE740F253
:101E8000FF5003F039FC0D482038046804F460402A
:101E900018B9200C30804046DFE704F4005008B148
:101EA0001320DAE704F4804008B11020D5E704F4E9
:101EB000004008B10F20D0E74046CEE7342C014067
:101EC00070B500264FF4803505E00F48046804F033
:101ED000450000B103E0281EA5F10105F5D100BFC2
:101EE00015B104F0040028B10326042003F004FC1B
:101EF000304670BD04F0400018B10026402003F0C9
:101F0000FBFB3046F5E70000342C014070B5064677
:101F10000C4604F08000802808D104F07F0000EB1C
:101F2000800106F58E7000EBC10507E004F07F002C
:101F300000EB800106F55D7000EBC10504F07F0049
:101F4000287004F08000C0096870294630460BF004
:101F500095FF002070BD70B506460C4604F0800069
:101F6000802808D104F07F0000EB800106F58E7018
:101F700000EBC10505E004EB840106F55D7000EBA4
:101F8000C1050020A87004F07F002870C4F3C010C1
:101F90006870294630460BF049FF002070BD70B5CF
:101FA00005460C4604F08000802805D104F07F012E
:101FB00028460CF05DF902E028460CF033F90020C9
:101FC00070BD2DE9F04106460D4690461F4605F0CE
:101FD0008000802808D105F07F0000EB800106F525
:101FE0008E7000EBC10407E005F07F0000EB80017C
:101FF00006F55D7000EBC10405F07F00207005F070
:102000008000C0096070C4F80880E770607808B18B
:102010002078E080022F01D1002020712146304637
:102020000BF0B8FE0020BDE8F0812DE9F041054637
:102030000E461746984606F07F0000EB800105F536
:102040005D7000EBC104E760C4F814800020A0615B
:10205000607006F07F002070E878012800D12761C9
:10206000207820B9214628460BF0B8FD03E0214630
:1020700028460BF064FF0020BDE8F08108B500227F
:102080000092009A61F30A12009202691268009BA2
:102090001A4303691A6008BD70B506460C4604F081
:1020A0008000802808D104F07F0000EB800106F555
:1020B0008E7000EBC10505E004EB840106F55D7050
:1020C00000EBC1050120A87004F07F002870C4F364
:1020D000C0106870294630460BF0FFFE002070BD2E
:1020E0002DE9F04107460D461646984605F07F005B
:1020F00000EB800107F58E7000EBC10401206070D9
:1021000005F07F002070E66026610020A061C4F821
:102110001480207820B9214638460BF05FFD03E09B
:10212000214638460BF00BFF0020BDE8F0811CB5BE
:10213000044620460BF01DFDE068C0680090204674
:102140000CF0C0F803280BD10020A0704FF40070F1
:10215000A080009820F4705000F51050009009E025
:102160000120A0704020A080009820F4705000F55D
:10217000A05000900098E168C8600020019001988C
:1021800020F4005000F5005001900198E16848618A
:1021900001201CBDF8B5054600240020009028460B
:1021A0000CF0CFF8064690E006F0010000287DD044
:1021B000E1B2284600F002FB0090009800F0010018
:1021C00030B3012000FA04F72869406BB84329694D
:1021D000486300200090009820F00100401C00900F
:1021E00005F1180050F8240000998160E1B23948E7
:1021F0000068426828469047E878012808D13CB931
:1022000040F21110405D042802D128460BF091FDE8
:102210000098C0F3C00060B100200090009820F04A
:1022200008000830009005F1180050F824000099CB
:1022300081600098C0F3001060B100200090009809
:1022400020F010001030009005F1180050F8240024
:10225000009981600098C0F3801060B10020009068
:10226000009820F040004030009005F1180050F830
:102270002400009981600098C0F3400060B1002004
:102280000090009820F00200801C009005F11800DA
:1022900050F82400009981600098C0F3C01028B164
:1022A0002146284600F09EFA002000E00BE0009056
:1022B000009820F080008030009005F1180050F860
:1022C000240000998160641C7608002E7FF46CAFB6
:1022D0000120F8BD000100207CB504460025002047
:1022E000019020460CF035F806466FE006F001003C
:1022F000002869D0E9B220460CF033F8019001982B
:1023000000F00100C8B300200190019820F0010006
:10231000401C019004F1540050F82500019981609F
:10232000E078012817D104F1540050F82500006925
:10233000009005EB850104F55D7000EBC10080683D
:102340000099C1F31201411A05EB850204F55D7095
:1023500000EBC2008161E9B21E48006802682046B5
:102360009047E078012808D13DB940F21110005D96
:10237000052802D120460BF0DCFC0198C0F3400098
:1023800060B100200190019820F00200801C0190B3
:1023900004F1540050F82500019981600198C0F3C0
:1023A000C00088B10B48006881682046884700203B
:1023B0000190019820F008000830019004F15400C9
:1023C00050F82500019981606D1C7608002E8DD192
:1023D00001207CBD000100203EB50446A07A70B10A
:1023E000D4F80C010090009820F0020000900098B2
:1023F00020F0010000900099D4F80C010160002049
:102400000190019820F00100401C01902069406873
:10241000019988432169486008480068816920461D
:10242000884700200290029820F0004000F1004010
:1024300002900298E168486101203EBD0001002041
:102440007CB5044600200190019820F01000103067
:102450000190E068806901998843E1688861E068DB
:10246000006A0090009800F00F0000EB800104F576
:102470005D7000EBC1050098C0F3434007282DD2E2
:10248000DFE800F02C04051D1E2C1F0027E000983B
:10249000C0F30A1090B10098C0F30A122046E96810
:1024A0000BF069FFE8680099C1F30A110844E8607D
:1024B000A8690099C1F30A110844A8610FE00EE071
:1024C0000DE0082204F2CC5120460BF054FFA8691D
:1024D0000099C1F30A110844A86100E000BF00BFE1
:1024E000E068806901990843E168886101207CBD4A
:1024F00038B5044608480068C1682046884700206F
:102500000090009820F00800083000900098E168E2
:102510004861012038BD0000000100201FB50446BD
:10252000002000904FF48970005D009023480068FF
:102530004169204688472069806801900020039007
:10254000039820F4006000F5006003900398E168B0
:102550004861A07A70B3019800F0010050B340F2D6
:102560001510005D012825D19DF80000032821D118
:1025700000200290029820F00100401C0290D4F844
:102580000C01006802990843D4F80C110860029805
:1025900020F00200801C0290D4F80C01006802991F
:1025A0000843D4F80C1108600548006840F00600A4
:1025B00003490860012004B010BD000000010020A4
:1025C00010ED00E030B587B0044600200290069080
:1025D0000590049003900190029820F00100401CA7
:1025E000029020694068029988432169486000216F
:1025F00020460BF03DFE00250BE0FF2104F1180002
:1026000050F82500816004F1540050F825008160E5
:102610006D1C6078A842F0D84FF0FF3120698161CD
:1026200006986FF30F00401C0690069880B200F5E4
:102630008030069006992069C161059820F0080055
:1026400008300590059820F00100401C0590059881
:1026500020F00200801C05900599206941610498D2
:1026600020F00100401C0490049820F0080008307D
:102670000490049820F00200801C049004992069C2
:102680000161206900680390039820F4FE600390C4
:1026900003992069016020460BF04BFB002001905C
:1026A000019820F4805000F5805001900198E16875
:1026B000486104480068016920468847012007B046
:1026C00030BD0000000100202DE9F04106460F4614
:1026D000394630460BF064FE01214FF48970815574
:1026E0000021801C8155002511E005EB850106F5D0
:1026F0008E7000EBC104012060702570E580002021
:10270000E0704020A0600020E06060616D1C707887
:10271000A842EAD8002510E005EB850106F55D70BA
:1027200000EBC104002060702570E580E07040205F
:10273000A0600020E06060616D1C7078A842EBD85A
:1027400030460BF005FA30460BF032F800213046E7
:102750000BF08EFE30460BF0BEF830460BF051FD0C
:10276000BDE8F08138B504460020009007480068B5
:10277000C16920468847009820F4801000F5801039
:1027800000900098E1684861012038BD00010020F8
:1027900038B504460020009007480068016A2046CA
:1027A0008847009820F4001000F500100090009871
:1027B000E1684861012038BD0001002030B50246C3
:1027C00015692B6915696C6B24FA01F505F0010593
:1027D00043EAC51302F1180555F82150AD6805EA22
:1027E000030030BD2DE9F84307460E4600250020C2
:1027F000009006EB860107F58E7000EBC104D4E96A
:102800000501451AA068A84200D2A568E81C4FEA55
:10281000900807F1180050F82600806900901BE02E
:10282000D4E90501451AA068A84200D2A568E81CB1
:102830004FEA9008ABB2F2B23846E1680BF03FFEC7
:10284000E0682844E060A0692844A06107F118000E
:1028500050F8260080690090009880B2404506D963
:10286000D4E90510884202D260690028D8D101203D
:10287000BDE8F88321B1026842F00102026003E082
:10288000026822F00102026070470000016821F036
:10289000010101600021016041608160C16001614E
:1028A000212141614A49884204D13D21484A103AD8
:1028B00091608CE046491831884205D14FF474612B
:1028C000434A103A916082E041493031884205D153
:1028D0004FF474113E4A103A916078E03C49483117
:1028E000884205D14FF07461394A103A91606EE028
:1028F00037496031884204D13649354A103AD160AF
:1029000065E033497831884204D13349304A103A7E
:10291000D1605CE02E499031884204D12F492C4A85
:10292000103AD16053E02A49A831884205D14FF0CE
:102930003D51274A103AD16049E02949884204D1E3
:102940003D21274A083A116041E025491831884263
:1029500005D14FF47461224A083A116037E02049EA
:102960003031884205D14FF474111D4A083A116084
:102970002DE01B494831884205D14FF07461184A57
:10298000083A116023E016496031884204D11149A8
:10299000134A121F11601AE011497831884204D19C
:1029A0000D490F4A121F116011E00D499031884204
:1029B00004D10A490A4A121F116008E00849A831E7
:1029C000884204D14FF03D51054A121F11607047F3
:1029D000106002403D000020400F002000003D201C
:1029E0001064024021B1026842F02002026003E05C
:1029F000026822F0200202607047014600200A6847
:102A000002F001020AB1012000E00020704700003E
:102A100010B500220268134B1A40CC680B682343A0
:102A20004C6923438C692343CC6923430C6A2343B9
:102A30004C6A23438C6A23434C6B23438C6B2343A4
:102A40001A430260426922F00702D1E90B342343A2
:102A50001A4342610B6943604B6883608B68C360B3
:102A600010BD00003F801CF0014908607047000065
:102A7000143C014051B18200A2F1C042126842F000
:102A800001038200A2F1C042136009E08200A2F1BA
:102A9000C0421268034B1A408300A3F1C0431A607E
:102AA00070470000FEFF0F00D0E901121143C26819
:102AB0001143026911434269114382691143C2699A
:102AC0001143026A1143426A1143826A1143C26A86
:102AD0001143026B114302689200A2F1C0421160DF
:102AE000816808290BD101688900A1F1C0410968FA
:102AF00041F0400201688900A1F1C0410A60416BC8
:102B00000968426B526841EA0211426B926841EADD
:102B10000221426B928941EA0241426B128A41EAE8
:102B20000251426B127D41EA0261426B926911438C
:102B30000268521C9200A2F1C0421160C16AB1F554
:102B4000804F1BD1816B0968826B526841EA021188
:102B5000826B926841EA0221826B128A41EA025139
:102B6000826B127D41EA0261826B926911430268B5
:102B70009200A2F1C042C2F8041107E06FF0704267
:102B800001688900A1F1C041C1F80421704700002B
:102B90002DE9FC4107460D46002600240020009048
:102BA000019008205B490860102048604020886040
:102BB0000020C8604FF480600861084602F012FEF1
:102BC0001020FFF7BBF8044614B12046BDE8FC8195
:102BD0005148008800044F49086037204860402071
:102BE00088600020C8604FF480600861084602F0E9
:102BF000F9FD3720FFF7A2F804460CB12046E5E7BF
:102C00004FF0FF3045490860082048603020886058
:102C10000220C8600020086101204861084602F0D7
:102C20007BFD00203B4908603320486040208860DD
:102C30000020C8604FF480600861084602F0D2FDB1
:102C40003320FFF77BF804460CB12046BEE70CE0CA
:102C50004FF4001002F07AFD38B1314800684DF8A9
:102C60002600761C022E00D307E02D484C38006861
:102C700040F22A6108400028EAD000BF082002F094
:102C800065FD20B1082002F037FD04209EE70220F8
:102C900002F05CFD20B1022002F02EFD022095E73B
:102CA000202002F053FD20B1202002F025FD062057
:102CB0008CE74FF4007002F049FD28B14FF400702A
:102CC00002F01AFD072081E740F2FF5002F014FDE8
:102CD00000980006009901F47F4140EA0120009924
:102CE00001F47F0140EA1120009940EA1160686018
:102CF00001980006019901F47F4140EA0120019901
:102D000001F47F0140EA1120019940EA1160286036
:102D100020465BE700090020140000201409002071
:102D2000802C0140F0B50A4600210023002400BF9A
:102D30003DE0012505FA01F3156805EA03049C420C
:102D400034D105684F000326BE40B54305601579B0
:102D50004E00B5400668354305601579012D02D057
:102D60001579022D16D185684F000326BE40B54364
:102D7000856055794E00B540866835438560456865
:102D800001268E40B5434560456896798E40B6B2BF
:102D900035434560C5684F000326BE40B543C56056
:102DA000D5794E00B540C6683543C560491C102929
:102DB000BFD3F0BDF0B5002300244D07ED0E02FA9D
:102DC00005F3CE1000F1200555F826504E07F70EFA
:102DD0000F26BE40B543CF1000F1200646F827501D
:102DE000CE1000F1200555F8265045EA0304CE1018
:102DF00000F1200545F82640F0BD4183704701836E
:102E0000704700002DE9F05F0746884614462046CB
:102E1000E21704EB5272D2102146E31704EB53730E
:102E2000DB10A4EBC3030BB1012300E000231A4421
:102E3000624302F0FF0A3E78781C07460578812E2F
:102E400005DB402D03DBFF2D01D0FF2E0DD14FF010
:102E5000000906E0002008F8010B09F1010000F06C
:102E6000FF09D145F6DBBDE8F09F7F2D03DAA5F120
:102E70004000C5B202E0A5F14100C5B2A6F1810053
:102E8000C6B2BE2010FB065000FB0AFB182C3AD03D
:102E900004DC0C2C07D0102C7ED11CE0202C4AD056
:102EA000282C79D15FE001223D4801683D48006847
:102EB0000DF066FC59463B4800680CF0CCFF3A4BDD
:102EC00018224146374800680DF05EFD354800681D
:102ED0000CF02EFF61E0012234480168314800689F
:102EE0000DF04EFC59462F4800680CF0B4FF2E4BF5
:102EF000202241462B4800680DF046FD2948006815
:102F00000CF016FF49E001222948016825480068B5
:102F10000DF036FC5946234800680CF09CFF224B0C
:102F2000482241461F4800680DF02EFD1D480068EC
:102F30000CF0FEFE31E001221E48016819480068CD
:102F40000DF01EFC5946174800680CF084FF164B24
:102F500080224146134800680DF016FD11480068B4
:102F60000CF0E6FE19E00122134801680D480068E4
:102F70000DF006FC59460B4800680CF06CFF0A4B3C
:102F8000C8224146074800680DF0FEFC054800686D
:102F90000CF0CEFE01E0FFE700BF00BF00BF62E71C
:102FA000A80000209400002098000020AC00002021
:102FB000B0000020B4000020B80000207CB50A2634
:102FC00001250121202001F093FB680300900020DF
:102FD0008DF8040003208DF8050001208DF807000E
:102FE00069462D48FFF79EFEA803009001208DF84A
:102FF000040000208DF8060003208DF80500012054
:103000008DF8070069462448FFF78CFEA903224883
:10301000FFF7F5FE4FF4E13011F068FD32E00120DA
:103020001E4908600A200CF04FFA1DA011F060FA4A
:1030300000201D49C1F8980200240AE01B480088BE
:1030400000F4004000B106E005200CF03DFA601CE1
:10305000C4B20A2CF2DB00BF1448008800F4004020
:1030600080B112480578002010490880042D09D14C
:103070000F4800784F2805D10D4840784B2801D1E2
:10308000002504E0301EA6F10101CEB2C7D100BF79
:1030900006B9012528467CBD0014024098824242B0
:1030A00041540D0A000000000080424262000020EE
:1030B000380D002010B500200F4908600F48006847
:1030C00020F440200D4908600846006840F4802044
:1030D000086000200A49C1F8A40202200CF010FA8E
:1030E00001200549086002200CF00AFA002004497A
:1030F000C1F8A00210BD0000A082404200040240BE
:10310000008040421CB50121022001F0F1FA4FF489
:103110004070009001208DF8040003208DF8050018
:1031200000208DF8060001208DF80700694605484B
:10313000FFF7F8FD0120044908600449C1F8A40222
:103140001CBD000000040240A082404200804042BA
:1031500010B500200F4908600F48006820F4402097
:103160000D4908600846006840F48020086001208E
:103170000A49C1F8A40202200CF0C2F90120054955
:10318000086002200CF0BCF900200449C1F8A0023C
:1031900010BD0000A0824042000402400080404276
:1031A00070B5054600241648006820F440201449F4
:1031B0000860084600680860002616E000201149F3
:1031C000086002200CF09CF901200F49C1F8A00210
:1031D0006006040E0B487C38006808B1601CC4B25D
:1031E00001200CF08DF9701CC6B2082EE6DB15B973
:1031F000FFF7AEFF01E0FFF75DFF204670BD000066
:1032000000040240A08240420080404270B5044663
:103210001548006820F440201349086008460068FB
:1032200040F480200860002010490860002517E065
:10323000E0090E49091D08606006040E02200CF02A
:103240005FF901200A49C1F8A00202200CF058F9E8
:1032500000200649086002200CF052F9681CC5B233
:10326000082DE5DB70BD000000040240A082404252
:103270000080404210B50F48006820F440200D49FE
:1032800008600846006840F48020086001200A4970
:1032900008600A49C1F8A00204200CF031F90020AE
:1032A0000549086004200CF02BF900200349C1F8FF
:1032B000A00210BD00040240A482404200804042AF
:1032C00010B50F48006820F440200D4908600846FA
:1032D000006840F48020086000200A4908600A491C
:1032E000C1F8A40204200CF00BF901200549086084
:1032F0000549C1F8A40204200CF002F910BD000039
:1033000000040240A08240420080404210B50024E8
:103310001348006820F440201149086008460068FE
:10332000086001200F4908600CF0EAF801200E49FE
:10333000C1F8A0020CF0E4F807E0601CC4B2FA2C5B
:1033400003DDFFF7BDFF012010BD0648803800688F
:103350000028F2D10349091F086000BFF4E700000C
:1033600000040240A4824042008040421CB5044652
:103370000020019000902248008800042149086044
:103380000D204860402088600020C8604FF48060B5
:103390000861084602F026FA1B480068009002E027
:1033A000194800680090009800F045000028F7D008
:1033B000012002F0CBF920B1012002F09DF901209B
:1033C0001CBD042002F0C2F920B1042002F094F9DF
:1033D0000320F5E70C48243800680D2801D01020A0
:1033E000EEE740F2FF5002F087F907482038006806
:1033F00001900198C0F3432020700020E0E7000016
:103400001400002000090020342C014030B5014692
:1034100001F01F04C1F34513CA0AE50205EB431589
:103420001544A8B230BD000070B504460026174808
:103430000588408845431548808846F6040188423F
:1034400016D112488079012812D100200F498871C5
:103450002A2048812B2088810021084600F0E8FCC2
:1034600001200A4988712B2048812A20888103E0A5
:103470000021084600F0DCFC00F08AFE002602E095
:1034800003480480761CAE42FAD370BDD8080020F1
:103490008000006C2DE9F84F07460D46904699468E
:1034A000DDF828B0A8EB0700401C1FFA80FAA9EB52
:1034B0000500401C80B20090002414E0281981B25D
:1034C000384600F0B5FC00F063FE002607E004FB80
:1034D0000A603BF8100006490880701C86B2564509
:1034E000F5DB601C84B200988442E7DBBDE8F88F0E
:1034F0008000006C10B50446002C52D158498871E8
:10350000F02008804FF4A07048800846808849F277
:10351000413188420BD05248808846F604018842E7
:1035200005D04F48808845F2103188421AD12C20AE
:103530004B4908812A2048812B20888108468088B1
:1035400046F60401884205D04548808845F210318E
:10355000884206D14FF4A070414908804FF4F070C2
:10356000488079E03E48808845F21051884210D169
:103570004FF430503A4908814FF4285048814FF4B5
:103580002C5088814FF4F07008804FF448704880C8
:1035900062E0222032490881202048812120888150
:1035A0005AE001202E4988714FF4A0700880F02065
:1035B00048800846808849F24131884205D0284831
:1035C000808845F21031884207D12C202449088197
:1035D0002A2048812B2088812BE02148808846F6CC
:1035E0000401884207D12C201D4908812B204881E5
:1035F0002A2088811DE01A48808845F210518842AF
:1036000010D14FF43050164908814FF428504881AA
:103610004FF42C5088814FF4487008804FF4F070BC
:10362000488006E022200E49088121204881202080
:1036300088810B48808846F60401884205D00848F6
:10364000808845F21031884206D14FF4F070044969
:1036500008804FF4A0704880002000F07BFA10BD75
:10366000D80800202DE9FF4F84B081468A4600200B
:10367000039002900698A0EB09050798A0EB0A06B4
:10368000CDF80490CDF800A0002D01DD012705E064
:103690000DB9002702E04FF0FF376D42002E02DD2A
:1036A0004FF0010806E016B94FF0000802E04FF0B5
:1036B000FF387642B54201DD2C4600E034464FF03B
:1036C000000B21E0009A91B2019A90B200F022F82A
:1036D0000398284403900298304402900398A04233
:1036E00005DD0398001B039001983844019002986F
:1036F000A04205DD0298001B029000984044009013
:103700000BF101001FFA80FB601C8345DADD08B075
:10371000BDE8F08F30B504460D462946204600F03E
:1037200087FB00F035FD024800880249088030BD63
:103730000A0000208000006C2DE9F04306460F4689
:103740009046002445460320A0EB48093CE07A1B44
:1037500091B2321990B2FFF7DDFF3A1B91B27219A4
:1037600090B2FFF7D7FF3A1991B2721990B2FFF7F2
:10377000D1FF7A1991B2321990B2FFF7CBFF7A19C3
:1037800091B2321B90B2FFF7C5FF3A1991B2721B8A
:1037900090B2FFF7BFFF7A1B91B2321B90B2FFF7D6
:1037A000B9FF3A1B91B2721B90B2FFF7B3FF641CD2
:1037B000B9F1000F03DAA000801D814404E0601B12
:1037C00080000A3081446D1EAC42C0DDBDE8F0834C
:1037D00070B504460D4616464348808849F241318B
:1037E000884205D04048808845F21031884214D183
:1037F0003D49488900F0C0FC201200F0B1FCE0B265
:1038000000F0AEFC3849888900F0B6FC281200F0C0
:10381000A7FCE8B200F0A4FC5DE03348808845F2E4
:103820001051884220D13049488900F0A5FC20126F
:1038300000F096FC2C494989491C88B200F09CFC98
:10384000E0B200F08DFC2849888900F095FC281230
:1038500000F086FC24498989491C88B200F08CFC60
:10386000E8B200F07DFC36E01F48808846F604018F
:1038700088421DD11C488079012804D11A4800884B
:10388000401E001B84B21849488900F075FC2012C4
:1038900000F066FCE0B200F063FC1349888900F098
:1038A0006BFC281200F05CFCE8B200F059FC12E05E
:1038B0000D488079012804D10B480088401E001B68
:1038C00084B209494889214600F06CFC0649888980
:1038D000294600F067FC04480089044908804FF03D
:1038E000D840A0F8806070BDD80800207E00006C31
:1038F0002DE9FC4F05460E4617469846DDF82C90FC
:10390000002001902748808846F60401884229D18A
:1039100024488079012825D1AB46354621480088C6
:10392000C01B401E86B247461E480088A0EB0B0015
:10393000401E1FFA80F800201A4988712A20488109
:103940002B20888143463A4631462846CDF80090E0
:10395000FFF7CEFF0120134988712B2048812A20D0
:1039600088811DE0781B401C80B20190344615E030
:103970002146284600F05CFA00F00AFC4FF0000AED
:1039800007E04FF0D840A0F880900AF101001FFA3C
:1039900080FA01988245F4DB601C84B24445E7DD7F
:1039A000BDE8FC8FD808002010B50246012000E0D9
:1039B00050430B1EA1F10104E1B2F9D110BD00008A
:1039C00008B5034800880090BDF8000008BD00005D
:1039D0008000006C3EB504460D4600200290019028
:1039E000009055480088A04203DD53484088A84213
:1039F00001DC00203EBD2946204600F019FA4E4861
:103A0000808849F2413188420BD04B48808846F685
:103A10000401884205D04848808845F21031884228
:103A200003D12E2000F0A8FB0DE04348808845F22A
:103A30001051884204D14FF4385000F09DFB02E051
:103A4000222000F099FB3C48808849F220318842CE
:103A500002D1022010F088F9FFF7B2FF022010F027
:103A600083F9FFF7ADFF02903348808849F2413176
:103A700088420BD03048808845F21031884205D00A
:103A80002D48808845F21051884210D1022010F054
:103A90006BF9FFF795FF0090BDF80800C0B20190E8
:103AA000BDF804004FF6FF7101EA002001902248A2
:103AB000808849F22531884216D01F48808844F218
:103AC0003551884210D01C488088091F88420BD08D
:103AD000194880884BF20551884205D016488088E5
:103AE0004CF20551884202D1BDF8080082E7124825
:103AF000808849F2413188420BD00F48808845F2D6
:103B00001031884205D00C48808845F21051884217
:103B10000DD1BDF80800C012C002BDF80410891212
:103B200040EA4110BDF8001040EAE12062E7BDF82C
:103B30000800FFF76BFC5DE7D808002001B5BDF871
:103B4000000000F019FB05200BF0DAFCFFF738FF4E
:103B500008BD00002DE9F04305460024A146B34806
:103B6000807901281ED1B148808846F60401884238
:103B700018D0082D15D2DFE805F00406080A0C0E4F
:103B8000101206250DE007250BE0042509E00525A8
:103B900007E0012505E0002503E0032501E00225FB
:103BA00000BF00BFA148808849F24131884211D04E
:103BB0009E48808846F6040188420BD09B48808846
:103BC00045F21031884205D09848808845F210515E
:103BD000884278D1082D1CD2DFE805F00406090CD4
:103BE0000F12151800BF14E044F0800411E044F0F7
:103BF00040040EE044F0C0040BE044F0200408E070
:103C000044F0600405E044F0A00402E044F0E00465
:103C100000BF00BF8548808845F21051884202D11C
:103C20004FF4585901E04FF036098048808845F23A
:103C30001031884207D07D48808845F21051884273
:103C400001D044F008047948808846F6040188428F
:103C500001D144F002042146484600F0A3FA04F0E2
:103C6000200018B97148807901280FD16F48008869
:103C70006E494988884218DA6C48B0F8008040885C
:103C80006A4908800846A0F802800EE0674800886C
:103C900066494988884208DD6448B0F80080408859
:103CA000624908800846A0F80280604880790128AF
:103CB0000AD15E48808846F60401884204D05B48F9
:103CC0004688078803E07AE05848068847885748BE
:103CD000808845F2105188424AD15449488900F001
:103CE0004BFA002000F03CFA50494989491C88B23F
:103CF00000F042FA002000F033FA4C494989891C4F
:103D000088B200F039FA711EC1F30F2000F028FAD2
:103D100046494989C91C88B200F02EFA711EC8B202
:103D200000F01EFA4149888900F026FA002000F0D0
:103D300017FA3E498989491C88B200F01DFA002013
:103D400000F00EFA39498989891C88B200F014FA0A
:103D5000791EC1F30F2000F003FA34498989C91C88
:103D600088B200F009FA791EC8B200F0F9F95AE0F9
:103D70002E49488900F000FA002000F0F1F90020F7
:103D800000F0EEF9711EC1F30F2000F0E9F9711E89
:103D9000C8B200F0E5F92549888900F0EDF9002066
:103DA00000F0DEF9002000F0DBF9791EC1F30F20EE
:103DB00000F0D6F9791EC8B200F0D2F933E0082D30
:103DC0001CD2DFE805F004070A0D0F12151844F0A5
:103DD000300413E044F0100410E044F020040DE03F
:103DE00000BF0BE044F0380408E044F0280405E08C
:103DF00044F0180402E044F0080400BF00BF0B4880
:103E0000808848F68911884205D14FF0110946F2A1
:103E10004000044303E04FF0030944F4805421467A
:103E2000484600F0BFF9BDE8F0830000D808002044
:103E300030B504460D464048808849F241318842F9
:103E400005D03D48808845F21031884214D13A4966
:103E5000488900F091F9201200F082F9E0B200F0F8
:103E60007FF93549888900F087F9281200F078F940
:103E7000E8B200F075F95DE02F48808846F604014D
:103E800088421DD12C488079012804D12A48008815
:103E9000401E001B84B22849488900F06DF92012A9
:103EA00000F05EF9E0B200F05BF92349888900F088
:103EB00063F9281200F054F9E8B200F051F939E042
:103EC0001D48808845F21051884220D11A494889FE
:103ED00000F052F9201200F043F917494989491CB2
:103EE00088B200F049F9E0B200F03AF91249888945
:103EF00000F042F9281200F033F90F498989491C72
:103F000088B200F039F9E8B200F02AF912E00A4864
:103F10008079012804D108480088401E001B84B223
:103F200005494889214600F03DF903498889294619
:103F300000F038F930BD0000D80800202DE9F84F16
:103F400080460E4617461C46B3462046E31704EB50
:103F50005373DB1021464FEAE47C04EB5C7C4FEAB0
:103F6000EC0CA4EBCC0CBCF1000F02D04FF0010C18
:103F700001E04FF0000C6344224604EBD27C4FEA90
:103F80006C0C03FB0CF3DBB20093A7F12000C7B26B
:103F9000002556E00C2C07D107EB47002B4901EB1D
:103FA000800010F8059013E0102C05D1284800EB94
:103FB000071010F805900BE0182C07D107EBC7008D
:103FC000244901EB800010F8059001E0BDE8F88F6E
:103FD0004FF0000A2FE009F0800030B11E4802883F
:103FE00031464046FFF7F4FB07E00A9828B91B4822
:103FF000028831464046FFF7EBFB4FEA49604FEA43
:104000001069701C86B216484088B04200DCDDE7BB
:10401000A6EB0B00A0420AD15E4608F101001FFA90
:1040200080F80F480088404500DCCFE706E00AF141
:10403000010000F0FF0ABAF1080FCCDB00BF681CDA
:10404000C5B200988542A5DB00BFBFE760520108FA
:10405000D4560108C45C01080A0000200C000020AE
:10406000D80800202DE9FF4F81B0074691461E4633
:104070000E9D4FF0000A002439E0301B401EC1B2F3
:104080000A20FFF791FCB9FBF0F00A21B0FBF1F236
:1040900001FB1208BAF1000F16D1701EA04213DD09
:1040A000B8F1000F0ED10020AB4605EBDB714910D3
:1040B00001FB0471009088B22B4620220299FFF781
:1040C0003DFF12E04FF0010A0020AB4605EBDB712B
:1040D000491001FB0471009088B208F13001CAB2A6
:1040E0002B460299FFF72AFF00BF601CC4B2B442FE
:1040F000C3DB05B0BDE8F08F2DE9F84704460D4657
:1041000090469946DDE9096704F0FF0A08EB0400D0
:104110001FFA80F809EB05001FFA80F916E0444504
:1041200002DB5446A81985B24D4500DB14E000209F
:1041300000903A78334629462046FFF7FFFE304686
:1041400006EBD07104EB61018CB27F1C38787E28BD
:1041500002DC38782028E2DA00BFBDE8F8870000EA
:1041600001B5BDF800000090BDF8000001490880CD
:1041700008BD00008000006C01B5BDF80000009093
:10418000BDF800000149088008BD00007E00006CF9
:10419000024800890249088070470000D8080020C2
:1041A0007E00006C03B5BDF8000004490880BDF82E
:1041B00004004FF0D841A1F880000CBD7E00006CD7
:1041C0000FB430B58BB004460D4611A8039004A877
:1041D000039A1099FCF762F90020039009480078CF
:1041E0000849497804AACDE900210290054843789E
:1041F00042882946204603F047F90BB030BC5DF8F1
:1042000014FB0000A40000201CB50121202000F0B8
:104210006FFA002422E0134800EBC40040680090CD
:1042200001208DF8040000208DF8060001208DF893
:10423000070003208DF805000A4951F8340069464B
:10424000FEF770FD074A02EBC402928891B2054A5C
:1042500052F83400FEF7D3FD601CC4B2022CDAD34E
:104260001CBD00005052010810B50446054A02EB7F
:10427000C402928891B2034A52F83400FEF7BFFD9F
:1042800010BD00005052010810B50446054A02EB6B
:10429000C402928891B2034A52F83400FEF7ADFD91
:1042A00010BD00005052010870B5054600240BE017
:1042B0000120A040284018B12046FFF7E5FF02E0AA
:1042C0002046FFF7D1FF641C022CF1D370BD000023
:1042D00010B504460D48007B48B90C48806830B1E1
:1042E0000B48007818B901212046FDF7D5FE812141
:1042F0002046FDF7D1FE06480078022805D11F238D
:10430000024A01212046FDF790FE10BDC4E80120BD
:104310001501002010B504462B4840682B49486021
:104320002948806888600121204608F018FC1F2871
:1043300010D125480068264988420BD12248407B8D
:10434000012807DC2048807B012803DB1E48807B96
:1043500010280CDD1C49487B2022052101F05EF865
:1043600002201C4908702046FFF7B2FF2AE01648D9
:10437000417B00F10F02204600F0BEFD002803DA69
:104380002046FFF7A5FF1DE013480078022819D04A
:1043900011480078012815D00F480078032811D063
:1043A0000E480088002806DD0C4802880C4920468B
:1043B00000F0E0F806E00948008818B9002120461E
:1043C00000F0B8F810BD0000C4E80120E4E80120C6
:1043D0005553424315010020140100201201002012
:1043E000C4B8012070B505460C460C480078022878
:1043F00007D181212846FDF74FFE002007490870AC
:104400000BE004F08000802807D1044800780128E0
:1044100003D00121284600F08DF870BD1501002061
:1044200070B504460D4610480078022804D00328D1
:1044300011D0042814D10DE00C48417B00F10F028B
:10444000204600F059FD002803DA0121204600F043
:1044500071F806E000BF0021204600F06BF800E094
:1044600000BF00BF70BD000014010020C4E801209F
:1044700070B504460D460D48007810B1012812D1E0
:1044800003E02046FFF746FF0EE00948417B00F1BC
:104490000F02204600F030FD002803DA01212046FB
:1044A00000F048F800E000BF00BF70BD140100201C
:1044B000C4E801200021014A117070471401002056
:1044C00010B5044600200C4908700C4908700C48CF
:1044D000006801680020884701212046FDF75FFD44
:1044E00081212046FDF75BFD1F23064A012120465E
:1044F000FDF79BFD10BD00001401002015010020F8
:10450000E8010020C4E8012010B504460020064957
:1045100008700120054908701F23054A0121204623
:10452000FDF783FD10BD00001401002015010020DF
:10453000C4E8012070B505460C460A480A490860DF
:10454000084604730020094908700D23064A81219A
:104550002846FDF7C5FD1F23054A01212846FDF722
:1045600064FD70BD55534253E4E80120140100205E
:10457000C4E8012070B506460D4614460C48806814
:10458000A04202D20A48806800E0204684B209486E
:104590008068001B074988600020087304200649D2
:1045A000087023462A4681213046FDF799FD70BDEB
:1045B000C4E80120E4E80120140100203EB541F6E2
:1045C000FF740121080700F0C3F8012000F08AF809
:1045D000002000F0D1FA45F25001884231D001208C
:1045E00000F08AF904E0601C84B20A200AF06CFF33
:1045F000412000F061F90028F5D00CB901203EBD42
:104600004FF4807000F094F9012000F08BF97F20C6
:104610000190FF20029000200090684600F07AFA96
:10462000002332221A210A2000F094FB06230122E3
:1046300008210F2000F07CFB45F25001002000F023
:10464000DBFB0020DBE7000070B5002100230F2218
:10465000C4781CB3174C246804F4E064C4F5E06427
:10466000C4F30721C1F10404E3B20A4144789C4039
:10467000E1B28478144021430C07210E0E4C0578DA
:104680006155047804F01F050124AC4005786D11D4
:10469000AD0005F1E025C5F8004109E0047804F01B
:1046A0001F050124AC40054D0678761145F82640DB
:1046B00070BD00000CED00E000E400E080E100E0EF
:1046C00002490143024A1160704700000000FA05E8
:1046D0000CED00E010B5024808F0A2FB10BD000090
:1046E0001C020020014908627047000000000E42D1
:1046F00029B1064A12680243044B1A6004E0034AD7
:1047000012688243014B1A60704700003038024043
:1047100029B1064A12680243044B1A6004E0034AB6
:1047200012688243014B1A6070470000343802401F
:1047300029B1064A12680243044B1A6004E0034A96
:1047400012688243014B1A607047000038380240FB
:1047500029B1064A12680243044B1A6004E0034A76
:1047600012688243014B1A607047000040380240D3
:1047700029B1064A12680243044B1A6004E0034A56
:1047800012688243014B1A607047000020380240D3
:1047900029B1064A12680243044B1A6004E0034A36
:1047A00012688243014B1A6070470000443802408F
:1047B00029B1064A12680243044B1A6004E0034A16
:1047C00012688243014B1A6070470000243802408F
:1047D000F0B5002100220024022500260223324FDA
:1047E0003F6807F00C0121B1042905D0082937D111
:1047F00005E02E4F076036E02D4F076033E02A4F6B
:104800003F1F3F68C7F38056274F3F1F3F6807F0A1
:104810003F036EB1264FB7FBF3F7DFF88CC0ACF166
:10482000040CDCF800C0CCF3881C07FB0CF40CE093
:104830001E4FB7FBF3F7DFF870C0ACF1040CDCF8E7
:1048400000C0CCF3881C07FB0CF4174F3F1F3F68D8
:10485000C7F301477F1C7D00B4FBF5F7076002E05A
:10486000124F076000BF00BF0F4F3F6807F0F00115
:104870000909104F7A5C0768D74047600A4F3F68C4
:1048800007F4E051890A0B4F7A5C4768D74087608C
:10489000054F3F6807F46041490B064F7A5C476853
:1048A000D740C760F0BD0000083802400024F40083
:1048B00000127A000C02002010B5014600220023ED
:1048C00000204A11012A02D10A4C236808E0022A7A
:1048D00003D1084C7034236802E0064C743423681A
:1048E00001F01F02012494401C400CB1012000E0A3
:1048F000002010BD003802400021094A11701170DB
:10490000012802D0042808D103E00121044A1170D3
:1049100004E00521024A117000E000BF00BF7047AB
:104920007038024001490860704700003C0E474261
:10493000002100F44072B2F5407F08D1094A1168A5
:1049400021F4F811084A02401143064A1160054A51
:1049500068321268C0F30B031A43024B68331A60C3
:104960007047000008380240FFFCFF0F10B54FF4FD
:10497000807000F093F8012805D1000200F028F8BB
:1049800003A0FBF79DFD4FF40030FEF76DF810BD5E
:10499000414C41524D2041210D0A0000014600BF0B
:1049A000080900EB8000420001F00F001044C0B283
:1049B00070470146002204E0501CC2B2A1F10A0077
:1049C000C1B20A29F8DA100741EA10607047000006
:1049D00081B241F08001044A126802F0800262EA6A
:1049E0000101014A116070470C28004008B50022FF
:1049F000009200200021104A126802F04002CAB959
:104A0000421E0D4B1A6000BF0B4A126802F04001B3
:104A1000009A521C0092009AB2F5803F01D0002902
:104A2000F2D0054A126802F040020AB1012002E009
:104A3000002000E0012008BD0C2800400348006869
:104A400020F0800001490860704700000C280040F9
:104A500070B506460C4600250E4800680E4900EA6F
:104A60000105280CE070C5F30420607005F03F00DC
:104A7000A070C5F3423020705EB9E078FFF78EFF7A
:104A8000E0706078FFF78AFF6070A078FFF786FF1C
:104A9000A07070BD042800403FFFFF0010B5014624
:104AA00000200022054B1B68054C03EA040202EAC1
:104AB00001030BB1012000E0002010BD0C280040D4
:104AC0007F3F010070B506460C4600250F48006880
:104AD0000F4900EA0105C5F305402070C5F3062023
:104AE000607005F07F00A07005F48000000CE0709D
:104AF0005EB92078FFF752FF20706078FFF74EFF15
:104B00006070A078FFF74AFFA07070BD00280040D9
:104B10007F7F7F0030B504460025CA201549086014
:104B200053200860FFF762FF00B91DE011481C38F0
:104B3000006820F040000F491C39086008460068F2
:104B4000216808430B491C3908600A491439A068D8
:104B5000086008460068A18840EA01400549143908
:104B60000860FFF76BFF0125FF2002490860284617
:104B700030BD00002428004008B501460020009008
:104B800004480090009800EB8100009000980068B5
:104B900008BD0000502800402DE9F04105460C46B4
:104BA000002600274DB9607800F01000102804D1CD
:104BB000607820F010000A30607005B908E0607875
:104BC000FFF7ECFE0646A078FFF7E8FE064600BFBA
:104BD00055B1E0780004617840EA0120A1780843EB
:104BE000217840EA413611E0E078FFF7E2FE4FEA33
:104BF00000486078FFF7DDFE48EA0028A078FFF75C
:104C0000D8FE48EA0008207848EA4036CA2012490F
:104C1000086053200860FFF7E9FE08B9002714E098
:104C20000E4830400C4920390860FFF707FF0A485A
:104C30001C38006800F0200030B900F0ADF808B969
:104C4000002702E0012700E00127FF200249086059
:104C50003846BDE8F0810000242800403FFFFF00F7
:104C60002DE9F04105460C46002600274DB92E4897
:104C7000006800F0400000B102E00020E07000BFDA
:104C80000DE02948006800F0400020B12078FFF7CF
:104C900085FE064602E00020E07000BF00BF55B16F
:104CA00020780004617840EA0120A1780843E17887
:104CB00040EA014611E02078FFF77BFE4FEA00480A
:104CC0006078FFF776FE48EA0028A078FFF771FECB
:104CD00048EA0008E07848EA0046CA2012491C3138
:104CE000086053200860FFF781FE08B9002713E031
:104CF0000E4830400C4908390860FFF79FFE0A480B
:104D0000006800F0200030B900F046F808B900272C
:104D100002E0012700E00127FF2003491C31086061
:104D20003846BDE8F0810000082800407F7F7F0002
:104D3000F8B504460D4617461E468DF802708DF8EC
:104D400001508DF800608DF8034069460020FFF7A0
:104D500023FFF8BDF8B504460D4617461E468DF8EC
:104D600000408DF801508DF802708DF8036069469F
:104D70000020FFF775FFF8BD10B54FF48060FFF716
:104D80008DFE012802D18002FFF722FE4FF4800041
:104D9000FDF76AFE10BD000008B500220092002059
:104DA0000021CA22134B1A6053221A60114A183A82
:104DB000126822F0A0020F4B183B1A6000BF0D4A88
:104DC000183A126802F02001009A521C0092009AD0
:104DD000B2F5003F01D00029F1D0064A183A126816
:104DE00002F020020AB1012000E00020FF22014B66
:104DF0001A6008BD2428004008B500220092044A29
:104E00000092009A02EB80020092009A116008BDA5
:104E10005028004070B506460C46154660190749F3
:104E20000968884207D921220521304600F0F6FAA8
:104E30004FF0FF3070BD0020FCE700007001002043
:104E400030B504460A46507800F0010010B10E4B10
:104E500007210CE00D480068C06904EBC40500EBB5
:104E600085031879411D1079884200DC11790848C2
:104E7000018004E0481E81B2585C064D6854002948
:104E8000F8D1002030BD0000B01C0408E80100206B
:104E900012010020C4B8012010B502460B460821BB
:104EA0000648018005E0481E81B20548405C054C7B
:104EB00060540029F7D1002010BD0000120100202D
:104EC000BF1C0408C4B8012010B502460B460821D7
:104ED0000648018005E0481E81B20548405C054C4B
:104EE00060540029F7D1002010BD000012010020FD
:104EF000B71C0408C4B8012070B505460E46144618
:104F000032480560207823283ED00DDC1A2831D0A5
:104F100005DCB0B1032819D012284ED11BE01B28A4
:104F20001ED01E2849D120E02A283CD004DC2528A8
:104F30002FD0282841D131E02F2839D05A283CD110
:104F40001DE02146304600F08FFA70BD2146304604
:104F500000F018FAF9E721463046FFF771FFF4E751
:104F60002146304600F078FAEFE72146304600F05F
:104F700073FAEAE721463046FFF7A6FFE5E7214648
:104F80003046FFF789FFE0E72146304600F0B6F9EA
:104F9000DBE72146304600F06BF9D6E72146304684
:104FA00000F0E4F8D1E72146304600F0ADFACCE756
:104FB0002146304600F080FAC7E72022052130461E
:104FC00000F02CFA4FF0FF30BFE700008401002012
:104FD0002DE9F041054627480068B0F5405F02D250
:104FE0002448006801E04FF440500446224800681D
:104FF000B4FBF0F086B2204800232049026803C9C0
:10500000FBF7B1F907461E48006833463A461D498A
:10501000D0F810C02846E047002808DA1122042101
:10502000284600F0FBF94FF0FF30BDE8F081234641
:10503000144A812114480068FDF752F80F48D0E95E
:105040000020121940F100000C49C1E90020094874
:105050000068001B074908600C488068001B0B496A
:1050600088600448006810B90320094908700020CE
:10507000DBE70000800100206C01002078010020A7
:10508000E8010020C4B8012084010020E4E80120E8
:10509000140100202DE9F04105462D480068B0F5C7
:1050A000405F02D22A48006801E04FF440500446B5
:1050B00028480068B4FBF0F086B226480023264951
:1050C000026803C9FBF74FF90746244800683346D6
:1050D0003A462349D0F814C02846E047002808DAA9
:1050E00003220421284600F099F94FF0FF30BDE873
:1050F000F0811948D0E90020121940F1000016494A
:10510000C1E9002012480068001B114908601548D9
:105110008068001B134988600D48006828B9002189
:1051200011480068FFF706FA10E009480068B0F57A
:10513000405F02D20648006801E04FF4405083B25D
:10514000074A012108480068FCF76FFF0020CEE7FE
:10515000800100206C01002078010020E80100207F
:10516000C4B80120E4E80120840100202DE9F041C9
:1051700005460C4637480078002862D13648007B47
:1051800000F08000802809D03349487B2022052187
:1051900000F044F94FF0FF30BDE8F0812F4800687F
:1051A00081682846884738B13A220221284600F013
:1051B00035F94FF0FF30EFE7A0780006E17840EADC
:1051C0000140217940EA012061790843C117244A4E
:1051D00003C2207AE17940EA0120224908600846AA
:1051E000008882B21E4801682846FFF713FE002897
:1051F00002DA4FF0FF30CFE7022016490870184856
:105200000AC8194800680026A1FB002703FB0070AC
:1052100001FB06001249C1E900201248006812494A
:10522000096848430F4908600B488068096888424C
:1052300007D00949487B2022052100F0EFF8701EB5
:10524000AAE74FF44050094908802846FFF7C0FEFE
:10525000A2E7000014010020C4E80120E8010020BA
:1052600078010020800100206C0100201201002044
:1052700070B504460D461C4800681C4A1C4943682A
:105280002046984738B13A220221204600F0C6F85D
:105290004FF0FF3070BD16480068401E000E1549E3
:1052A000087013480068401E000C487010480088C1
:1052B000401E000A88700E480078401EC8700B48D7
:1052C0000068000E087109480068000C4871074822
:1052D0000088000A887105480078C87108200649CE
:1052E00008800020D6E70000E80100206C010020C3
:1052F00070010020C4B80120120100207CB50546D1
:105300000E46002404E000201B490855601C84B2AE
:105310000C2CF8DB1948006801AA69464368284646
:10532000984738B13A220221284600F077F84FF02A
:10533000FF307CBD08201049C8700098401E000E48
:1053400008710098401E000C48710098401E000A29
:1053500088710098401EC871022008720198000CE4
:1053600048720198000A88720198C8720C2004499A
:1053700008800020DDE70000C4B80120E80100201B
:105380001201002010B50346002204E000201E4C4C
:10539000A054501CC2B2122AF8DB70201A4C2070A4
:1053A0000C20E07119480078194C2478A04221D0D3
:1053B0001848164C247810F83400134CA070154887
:1053C000124C247800EBC40040790F4C2073114834
:1053D0000E4C247800EBC40000790B4C60730B4832
:1053E0000078401C094C207020460078042801D128
:1053F000002020701220084C20800879122801DC3F
:1054000008792080002010BDC4B801206801002068
:1054100069010020F4E801201201002030B50C4B96
:105420000C4C247803F834101302094C094D2D78E4
:1054300004EBC5046360074B1B785B1C054C2370B1
:1054400023461B78042B01D10023237030BD0000BC
:10545000F4E801206901002002460020014B188079
:10546000704700001201002070B504460D460F4839
:10547000806840B10D49487B20220521FFF7CEFF0F
:105480004FF0FF3070BD0A480068816820468847A9
:1054900038B13A2202212046FFF7C0FF4FF0FF301B
:1054A000F0E700200349088000BFEBE7C4E80120D3
:1054B000E80100201201002070B505460C46607816
:1054C00000F00200022807D1242205212846FFF718
:1054D000A5FF4FF0FF3070BD0848008882B2084831
:1054E00001682846FFF796FC002802DA4FF0FF30EB
:1054F000F1E700200349088000BFECE780010020AD
:1055000078010020120100202DE9F04105460C46EB
:1055100046480078002878D14548007B00F080009C
:10552000802809D14249487B20220521FFF776FFD8
:105530004FF0FF30BDE8F0813E48006881682846A2
:10554000884738B13A2202212846FFF767FF4FF01B
:10555000FF30EFE737480068C1682846884738B110
:10556000272202212846FFF759FF4FF0FF30E1E7DD
:10557000A0780006E17840EA0140217940EA012064
:1055800061790843C1172C4A03C2207AE17940EAC5
:1055900001202A4908600846008882B2264801682E
:1055A0002846FFF737FC002802DA4FF0FF30C1E74A
:1055B00021480CC8224800680026A2FB001703FB04
:1055C000007002FB06001C4AC2E900101B4800687C
:1055D0001B490968484319490860154880680968EB
:1055E000884207D01249487B20220521FFF716FF89
:1055F000701E9FE701200D49087010480068B0F543
:10560000405F03D20D48006802E009E04FF44050CB
:1056100083B20C4A01210C480068FCF706FD03E048
:105620002846FFF737FD85E7002083E714010020B7
:10563000C4E80120E801002078010020800100205A
:105640006C010020C4B80120840100207CB505460F
:10565000002400200090019000260DB1022600E0F9
:1056600000262248006800F0007008B10E207CBDC2
:105670001F49098888B26946FDF78AFA04460CB1C9
:105680002046F4E7019800F4802060B318480088B1
:1056900000041849086037204860402088600020D6
:1056A000C8604FF480600861084600F09BF837201E
:1056B000FCF744FB04460CB12046D8E70D480660D1
:1056C00006200C494860402088600020C8604FF4E4
:1056D00080600861084600F085F80620FCF72EFB84
:1056E00004462046C3E72520C1E70000142C0140F2
:1056F00014000020000900200149086070470000E4
:10570000382C01400146034A106820F0FF0008438E
:1057100010607047042C014000210B4B02681A6096
:105720001B1D42681A601A1D116821F0F701D0E9AB
:1057300002231A4303691A4343691A431143024A75
:105740000832116070470000242C014001460020FF
:10575000034A12680A400AB1012000E000207047A5
:10576000342C01400248006800F00300704700003C
:10577000002C014010B500F07FFC10BD00210A4A4A
:10578000116847F6FF629143027D83681A434368BC
:105790001A43C3681A4303681A4303691A4311433F
:1057A000014A116070470000042C014000200B49A1
:1057B0000860091D0860091D0860091D0860074987
:1057C00024310860091D0860091D08600448034968
:1057D000383108600020091D08607047002C014026
:1057E000FF07C0000021094B02681A601A1D1168EA
:1057F0006FF30A01D0E901231A43C3681A4303690E
:105800001A431143014A121D11607047082C0140D0
:105810000149086070470000002C014070B590B04D
:1058200004460E46154600BF1A48FDF7E6F8002864
:10583000FAD11848FDF72AF84FF000600190164899
:105840000290039404950020059006904FF4806028
:105850000790800008908000099000200A904FF483
:1058600040300B9004200C9003200D904FF400006A
:105870000E9080100F9001A90648FDF7C9F820216D
:105880000448FDF7AFF801210248FCF7F3FF10B020
:1058900070BD000058640240802C014070B5044681
:1058A000002516480078032802D12725284670BD18
:1058B0001248007838B111480078012803D00F4809
:1058C0000078022817D1B4F5805F02D12725284639
:1058D000EDE7E0B2FFF7BAFE054665B90848006893
:1058E00020F4C0500649086008460068204308605C
:1058F0000846006808602846D9E70000100000202C
:10590000042C0140F0B5014600200022BE4B1B785C
:1059100081F85630BD4B1B88A1F85430BC4B1B6836
:105920001A0E93090B70C2F383034B7002F003034A
:105930008B70B74B1B68C3F30742CA70B44B1B880C
:10594000C3F307220A71B24B1A784A715B681A0EC8
:105950001301CB80AE4B5B68C3F30742CB8843EAAD
:105960001213CB8002F00F030B72A94B9B88C3F379
:105970000722D3094B72C2F380138B72C2F3401318
:10598000CB72C2F300130B7300234B739E4B1B7837
:105990003BB19D4B1B78012B03D09B4B1B78032BFA
:1059A0004FD193071B0D0B61994B1A790B6943EA91
:1059B00082030B61964B9B681A0E0B6943EA9213A4
:1059C0000B61C2F3C2030B7502F007034B75904BDA
:1059D0009B68C3F3074253098B75C2F38203CB75EF
:1059E00093075B0F0B768A4B1B89C3F307220B7E51
:1059F00043EAD2130B760B695B1C0024C1E9123415
:105A00000B7E9B1C012404FA03F3DC17D1E9125628
:105A1000A5FB037C06FB03C305FB0433C1E912733A
:105A20000C7A0123A3400B650024D1E912650B6DAC
:105A3000A6FB037C05FB03C306FB0433C1E9127319
:105A40002EE0714B1B78022B2AD1714B1A799306E9
:105A50009B0A0B616E4B9B681A0E0B6943EA02238B
:105A60000B616B4B9B68C3F307420B6913430B61DC
:105A7000674B1B89C3F307220B695B1C4FF400744F
:105A8000A3FB04464FF480630025A4FB037C06FBC4
:105A900003C304FB0533C1E912734FF400730B65B4
:105AA000C2F3801301F8193F93065B0E4B70584BFD
:105AB0001A7A4B7843EAD2134B7002F07F038B7053
:105AC000534BDB681A0ED309CB70C2F341130B7131
:105AD000C2F382034B7193071B0F8B714C4BDB6836
